{
  "contractName": "Admin",
  "abi": [
    {
      "inputs": [
        {
          "internalType": "contract RahatERC20",
          "name": "_erc20",
          "type": "address"
        },
        {
          "internalType": "contract Regulator",
          "name": "_regulatorContract",
          "type": "address"
        },
        {
          "internalType": "uint256",
          "name": "_intitialSupply",
          "type": "uint256"
        },
        {
          "internalType": "address",
          "name": "_admin",
          "type": "address"
        }
      ],
      "stateMutability": "nonpayable",
      "type": "constructor"
    },
    {
      "anonymous": false,
      "inputs": [
        {
          "indexed": false,
          "internalType": "bool",
          "name": "success",
          "type": "bool"
        }
      ],
      "name": "Minted",
      "type": "event"
    },
    {
      "anonymous": false,
      "inputs": [
        {
          "indexed": true,
          "internalType": "bytes32",
          "name": "projectId",
          "type": "bytes32"
        },
        {
          "indexed": false,
          "internalType": "uint256",
          "name": "projectCapital",
          "type": "uint256"
        },
        {
          "indexed": false,
          "internalType": "string",
          "name": "tag",
          "type": "string"
        }
      ],
      "name": "ProjectERC20BudgetUpdated",
      "type": "event"
    },
    {
      "inputs": [],
      "name": "erc20",
      "outputs": [
        {
          "internalType": "contract RahatERC20",
          "name": "",
          "type": "address"
        }
      ],
      "stateMutability": "view",
      "type": "function"
    },
    {
      "inputs": [
        {
          "internalType": "address",
          "name": "",
          "type": "address"
        }
      ],
      "name": "owner",
      "outputs": [
        {
          "internalType": "bool",
          "name": "",
          "type": "bool"
        }
      ],
      "stateMutability": "view",
      "type": "function"
    },
    {
      "inputs": [
        {
          "internalType": "bytes32",
          "name": "",
          "type": "bytes32"
        }
      ],
      "name": "projectERC20Capital",
      "outputs": [
        {
          "internalType": "uint256",
          "name": "",
          "type": "uint256"
        }
      ],
      "stateMutability": "view",
      "type": "function"
    },
    {
      "inputs": [
        {
          "internalType": "bytes32",
          "name": "",
          "type": "bytes32"
        }
      ],
      "name": "projectExists",
      "outputs": [
        {
          "internalType": "bool",
          "name": "",
          "type": "bool"
        }
      ],
      "stateMutability": "view",
      "type": "function"
    },
    {
      "inputs": [
        {
          "internalType": "uint256",
          "name": "",
          "type": "uint256"
        }
      ],
      "name": "projectId",
      "outputs": [
        {
          "internalType": "bytes32",
          "name": "",
          "type": "bytes32"
        }
      ],
      "stateMutability": "view",
      "type": "function"
    },
    {
      "inputs": [],
      "name": "regulatorContract",
      "outputs": [
        {
          "internalType": "contract Regulator",
          "name": "",
          "type": "address"
        }
      ],
      "stateMutability": "view",
      "type": "function"
    },
    {
      "inputs": [
        {
          "internalType": "string",
          "name": "_projectId",
          "type": "string"
        },
        {
          "internalType": "uint256",
          "name": "_disbursementAmount",
          "type": "uint256"
        },
        {
          "internalType": "uint256",
          "name": "_disbursementFrequency",
          "type": "uint256"
        },
        {
          "internalType": "uint256",
          "name": "_startDate",
          "type": "uint256"
        },
        {
          "internalType": "uint256",
          "name": "_endDate",
          "type": "uint256"
        },
        {
          "internalType": "uint256",
          "name": "_totalAmount",
          "type": "uint256"
        }
      ],
      "name": "setProjectBudget_ERC20",
      "outputs": [],
      "stateMutability": "nonpayable",
      "type": "function"
    },
    {
      "inputs": [
        {
          "internalType": "string",
          "name": "_projectId",
          "type": "string"
        }
      ],
      "name": "getProjecERC20Balance",
      "outputs": [
        {
          "internalType": "uint256",
          "name": "_balance",
          "type": "uint256"
        }
      ],
      "stateMutability": "view",
      "type": "function"
    },
    {
      "inputs": [
        {
          "internalType": "address",
          "name": "_address",
          "type": "address"
        },
        {
          "internalType": "uint256",
          "name": "_amount",
          "type": "uint256"
        }
      ],
      "name": "mintERC20",
      "outputs": [],
      "stateMutability": "nonpayable",
      "type": "function"
    },
    {
      "inputs": [
        {
          "internalType": "address",
          "name": "_account",
          "type": "address"
        }
      ],
      "name": "addOwner",
      "outputs": [],
      "stateMutability": "nonpayable",
      "type": "function"
    }
  ],
  "bytecode": "0x608060405234801561001057600080fd5b50604051610c5d380380610c5d83398101604081905261002f916100fe565b600080546001600160a01b038681166001600160a01b031992831681179093556001805491871691909216179055604051631f132a7360e21b815230600482015260248101849052637c4ca9cc90604401602060405180830381600087803b15801561009a57600080fd5b505af11580156100ae573d6000803e3d6000fd5b505050506040513d601f19601f820116820180604052508101906100d29190610153565b506001600160a01b03166000908152600260205260409020805460ff1916600117905550610184915050565b6000806000806080858703121561011457600080fd5b845161011f8161016c565b60208601519094506101308161016c565b6040860151606087015191945092506101488161016c565b939692955090935050565b60006020828403121561016557600080fd5b5051919050565b6001600160a01b038116811461018157600080fd5b50565b610aca806101936000396000f3fe608060405234801561001057600080fd5b506004361061008e5760003560e01c806326f290601461009357806334854e2f146100c357806338975895146100e45780634dd1f81614610117578063666e1b391461012a57806368d99b131461014d5780637065cb4814610162578063785e9e86146101755780637c4ca9cc14610188578063f7597a4f1461019b575b600080fd5b6001546100a6906001600160a01b031681565b6040516001600160a01b0390911681526020015b60405180910390f35b6100d66100d13660046108a9565b6101bb565b6040519081526020016100ba565b6101076100f2366004610890565b60046020526000908152604090205460ff1681565b60405190151581526020016100ba565b6100d6610125366004610890565b6102b0565b610107610138366004610829565b60026020526000908152604090205460ff1681565b61016061015b3660046108e6565b6102d1565b005b610160610170366004610829565b610645565b6000546100a6906001600160a01b031681565b610160610196366004610844565b610698565b6100d66101a9366004610890565b60056020526000908152604090205481565b6000806101c783610750565b60008181526004602052604090205490915060ff1661022d5760405162461bcd60e51b815260206004820152601e60248201527f52414841545f41444d494e3a20496e76616c69642050726f6a6563744944000060448201526064015b60405180910390fd5b6001546040516367bc276d60e11b8152600481018390526001600160a01b039091169063cf784eda9060240160206040518083038186803b15801561027157600080fd5b505afa158015610285573d6000803e3d6000fd5b505050506040513d601f19601f820116820180604052508101906102a9919061094b565b9392505050565b600381815481106102c057600080fd5b600091825260209091200154905081565b3360009081526002602052604090205460ff166103005760405162461bcd60e51b8152600401610224906109e0565b85600061030c82610750565b60008181526004602052604090205490915060ff161561048e57600061033189610750565b9050836005600083815260200190815260200160002060008282546103569190610a58565b909155505060005460015460405163a9059cbb60e01b81526001600160a01b039283169263a9059cbb9261039192911690889060040161099f565b602060405180830381600087803b1580156103ab57600080fd5b505af11580156103bf573d6000803e3d6000fd5b505050506040513d601f19601f820116820180604052508101906103e3919061086e565b506001546040516336f65f9560e01b81526001600160a01b03909116906336f65f959061041e9084908c908c908c908c908c906004016109b8565b600060405180830381600087803b15801561043857600080fd5b505af115801561044c573d6000803e3d6000fd5b50505050807ffb81835777f5c1e6fd7d6eb84fa729934ae66884bf599bb714743f575ec7b577856040516104809190610a34565b60405180910390a25061063b565b6003805460018181019092557fc2575a0e9e593c00f959f8c92f12db2869c3395a3b0502d05e2516446f71f85b018290556000828152600460205260408120805460ff19169092179091556104e289610750565b9050836005600083815260200190815260200160002060008282546105079190610a58565b909155505060005460015460405163a9059cbb60e01b81526001600160a01b039283169263a9059cbb9261054292911690889060040161099f565b602060405180830381600087803b15801561055c57600080fd5b505af1158015610570573d6000803e3d6000fd5b505050506040513d601f19601f82011682018060405250810190610594919061086e565b506001546040516336f65f9560e01b81526001600160a01b03909116906336f65f95906105cf9084908c908c908c908c908c906004016109b8565b600060405180830381600087803b1580156105e957600080fd5b505af11580156105fd573d6000803e3d6000fd5b50505050807ffb81835777f5c1e6fd7d6eb84fa729934ae66884bf599bb714743f575ec7b577856040516106319190610a34565b60405180910390a2505b5050505050505050565b3360009081526002602052604090205460ff166106745760405162461bcd60e51b8152600401610224906109e0565b6001600160a01b03166000908152600260205260409020805460ff19166001179055565b3360009081526002602052604090205460ff166106c75760405162461bcd60e51b8152600401610224906109e0565b600054604051631f132a7360e21b81526001600160a01b0390911690637c4ca9cc906106f9908590859060040161099f565b602060405180830381600087803b15801561071357600080fd5b505af1158015610727573d6000803e3d6000fd5b505050506040513d601f19601f8201168201806040525081019061074b919061094b565b505050565b6000816040516020016107639190610964565b604051602081830303815290604052805190602001209050919050565b80356001600160a01b038116811461079757600080fd5b919050565b600082601f8301126107ad57600080fd5b813567ffffffffffffffff808211156107c8576107c8610a7e565b604051601f8301601f19908116603f011681019082821181831017156107f0576107f0610a7e565b8160405283815286602085880101111561080957600080fd5b836020870160208301376000602085830101528094505050505092915050565b60006020828403121561083b57600080fd5b6102a982610780565b6000806040838503121561085757600080fd5b61086083610780565b946020939093013593505050565b60006020828403121561088057600080fd5b815180151581146102a957600080fd5b6000602082840312156108a257600080fd5b5035919050565b6000602082840312156108bb57600080fd5b813567ffffffffffffffff8111156108d257600080fd5b6108de8482850161079c565b949350505050565b60008060008060008060c087890312156108ff57600080fd5b863567ffffffffffffffff81111561091657600080fd5b61092289828a0161079c565b9960208901359950604089013598606081013598506080810135975060a0013595509350505050565b60006020828403121561095d57600080fd5b5051919050565b6000825160005b81811015610985576020818601810151858301520161096b565b81811115610994576000828501525b509190910192915050565b6001600160a01b03929092168252602082015260400190565b958652602086019490945260408501929092526060840152608083015260a082015260c00190565b60208082526034908201527f52414841545f41444d494e3a204f6e6c792041646d696e2063616e20657865636040820152733aba32903a3434b9903a3930b739b0b1ba34b7b760611b606082015260800190565b9081526040602082018190526003908201526218591960ea1b606082015260800190565b60008219821115610a7957634e487b7160e01b600052601160045260246000fd5b500190565b634e487b7160e01b600052604160045260246000fdfea26469706673582212209f6c52dd5bc5e5bce3cf235838dd8000cec335a7a891d35c8bf7a1b21dd9d4de64736f6c63430008070033",
  "immutableReferences": {},
  "source": "//SPDX-License-Identifier: LGPL-3.0\r\n\r\npragma solidity 0.8.7;\r\n\r\nimport \"./RahatERC20.sol\";\r\nimport \"./Rahat.sol\";\r\n\r\n/// @title Regulator Admin contract - owns all the tokens initially minted\r\n/// @author Rumsan Associates\r\n/// @notice You can use this contract to manage Regulator tokens and projects\r\n/// @dev All function calls are only executed by contract owner\r\ncontract Admin {\r\n  using EnumerableSet for EnumerableSet.UintSet;\r\n\r\n  event ProjectERC20BudgetUpdated(\r\n    bytes32 indexed projectId,\r\n    uint256 projectCapital,\r\n    string tag\r\n  );\r\n  event Minted(bool success);\r\n\r\n  // uint256 public mintData ;\r\n  // bool public mintSuccess =false;\r\n\r\n  RahatERC20 public erc20;\r\n  Regulator public regulatorContract;\r\n  mapping(address => bool) public owner;\r\n  //EnumerableSet.UintSet private tokenIds;\r\n\r\n  /// @notice list of projects\r\n  bytes32[] public projectId;\r\n\r\n  //NFTs minted for each project\r\n\r\n  /// @notice check if projectId exists or not;\r\n  mapping(bytes32 => bool) public projectExists;\r\n\r\n  /// @notice assign budgets to project\r\n  mapping(bytes32 => uint256) public projectERC20Capital;\r\n\r\n  modifier OnlyOwner() {\r\n    require(\r\n      owner[msg.sender],\r\n      \"RAHAT_ADMIN: Only Admin can execute this transaction\"\r\n    );\r\n    _;\r\n  }\r\n\r\n  modifier CheckProject(string memory _projectId) {\r\n    bytes32 _id = findHash(_projectId);\r\n    if (projectExists[_id]) {\r\n      _;\r\n    } else {\r\n      projectId.push(_id);\r\n      projectExists[_id] = true;\r\n      _;\r\n    }\r\n  }\r\n\r\n  /// @notice All the supply is allocated to this contract\r\n  /// @dev deploys AidToken and Regulator contract by sending supply to this contract\r\n\r\n  constructor(\r\n    RahatERC20 _erc20,\r\n    Regulator _regulatorContract,\r\n    uint256 _intitialSupply,\r\n    address _admin\r\n  ) {\r\n    erc20 = _erc20;\r\n    regulatorContract = _regulatorContract;\r\n    erc20.mintERC20(address(this), _intitialSupply);\r\n    //(bool success, bytes memory result) = address(_tokenContract).call(abi.encodeWithSignature(\"mintERC20(address, uint256)\", address(this), _intitialSupply));\r\n    //mintSuccess = success;\r\n    //mintData = abi.decode(result,(uint256));\r\n\r\n    owner[_admin] = true;\r\n  }\r\n\r\n  /// @notice allocate token to projects\r\n  /// @dev Allocates token to the given projectId, Creates project and transfer tokens to Regulator contract.\r\n  /// @param _projectId Unique Id of Project\r\n  /// @param _totalAmount Budget Allocated to project\r\n\r\n  // bytes32 _projectId,\r\n  // uint256 _disbursementAmount,\r\n  // uint256 _disbursementFrequency,\r\n  // uint256 _startDate,\r\n  // uint256 _endDate,\r\n  // uint256 _totalAmount\r\n  function setProjectBudget_ERC20(\r\n    string memory _projectId,\r\n    uint256 _disbursementAmount,\r\n    uint256 _disbursementFrequency,\r\n    uint256 _startDate,\r\n    uint256 _endDate,\r\n    uint256 _totalAmount\r\n  ) public OnlyOwner CheckProject(_projectId) {\r\n    bytes32 _id = findHash(_projectId);\r\n    projectERC20Capital[_id] += _totalAmount;\r\n    erc20.transfer(address(regulatorContract), _totalAmount);\r\n    regulatorContract.allocateBudgetToProject(\r\n      _id,\r\n      _disbursementAmount,\r\n      _disbursementFrequency,\r\n      _startDate,\r\n      _endDate,\r\n      _totalAmount\r\n    );\r\n\r\n    emit ProjectERC20BudgetUpdated(_id, _totalAmount, \"add\");\r\n  }\r\n\r\n  /// @notice get the current balance of project\r\n  /// @param _projectId Unique Id of project\r\n  function getProjecERC20Balance(string memory _projectId)\r\n    public\r\n    view\r\n    returns (uint256 _balance)\r\n  {\r\n    bytes32 _id = findHash(_projectId);\r\n    require(projectExists[_id], \"RAHAT_ADMIN: Invalid ProjectID\");\r\n    return (regulatorContract.getProjectBalance(_id));\r\n  }\r\n\r\n  /// @notice mint new tokens\r\n  /// @param _address address to send the minted tokens\r\n  /// @param _amount Amount of token to Mint\r\n  function mintERC20(address _address, uint256 _amount) public OnlyOwner {\r\n    erc20.mintERC20(_address, _amount);\r\n  }\r\n\r\n  /// @notice Add an account to the owner role. Restricted to owners.\r\n  /// @param _account address of new owner\r\n  function addOwner(address _account) public OnlyOwner {\r\n    owner[_account] = true;\r\n  }\r\n\r\n  /// @notice generates the hash of the given string\r\n  /// @param _data String of which hash is to be generated\r\n  function findHash(string memory _data) private pure returns (bytes32) {\r\n    return keccak256(abi.encodePacked(_data));\r\n  }\r\n}\r\n",
  "sourcePath": "D:\\projects\\g20\\cbdc-contracts\\contracts\\RahatAdmin.sol",
  "compiler": {
    "name": "solc",
    "version": "0.8.7+commit.e28d00a7.Emscripten.clang"
  },
  "schemaVersion": "3.4.3",
  "updatedAt": "2022-08-22T06:38:14.347Z",
  "devdoc": {
    "author": "Rumsan Associates",
    "details": "All function calls are only executed by contract owner",
    "kind": "dev",
    "methods": {
      "addOwner(address)": {
        "params": {
          "_account": "address of new owner"
        }
      },
      "constructor": {
        "details": "deploys AidToken and Regulator contract by sending supply to this contract"
      },
      "getProjecERC20Balance(string)": {
        "params": {
          "_projectId": "Unique Id of project"
        }
      },
      "mintERC20(address,uint256)": {
        "params": {
          "_address": "address to send the minted tokens",
          "_amount": "Amount of token to Mint"
        }
      },
      "setProjectBudget_ERC20(string,uint256,uint256,uint256,uint256,uint256)": {
        "details": "Allocates token to the given projectId, Creates project and transfer tokens to Regulator contract.",
        "params": {
          "_projectId": "Unique Id of Project",
          "_totalAmount": "Budget Allocated to project"
        }
      }
    },
    "title": "Regulator Admin contract - owns all the tokens initially minted",
    "version": 1
  },
  "userdoc": {
    "kind": "user",
    "methods": {
      "addOwner(address)": {
        "notice": "Add an account to the owner role. Restricted to owners."
      },
      "constructor": {
        "notice": "All the supply is allocated to this contract"
      },
      "getProjecERC20Balance(string)": {
        "notice": "get the current balance of project"
      },
      "mintERC20(address,uint256)": {
        "notice": "mint new tokens"
      },
      "projectERC20Capital(bytes32)": {
        "notice": "assign budgets to project"
      },
      "projectExists(bytes32)": {
        "notice": "check if projectId exists or not;"
      },
      "projectId(uint256)": {
        "notice": "list of projects"
      },
      "setProjectBudget_ERC20(string,uint256,uint256,uint256,uint256,uint256)": {
        "notice": "allocate token to projects"
      }
    },
    "notice": "You can use this contract to manage Regulator tokens and projects",
    "version": 1
  }
}